:100000000C945C000C947B000C947B000C947B00A3
:100010000C947B000C947B000C947B000C947B0074
:100020000C947B000C947B000C947B000C947B0064
:100030000C947B000C947B000C947B000C947B0054
:100040000C947B000C947B000C947B000C947B0044
:100050000C947B000C947B000C947B000C947B0034
:100060000C947B000C947B000C947B000C947B0024
:100070000C947B000C947B000C947B000C947B0014
:100080000C947B000C947B000C947B00EB00F20042
:1000900003011401250136014701580169017A0164
:1000A0008B01B801DB01BD01DB01C301DB01C8012C
:1000B000DB01CE01DB01D30111241FBECFEFD0E461
:1000C000DEBFCDBF11E0A0E0B1E0E8EDF3E000E07D
:1000D0000BBF02C007900D92AE30B107D9F721E0F7
:1000E000AEE0B1E001C01D92A031B207E1F70E947D
:1000F000A6000C94EA010C940000CF93DF9300D08B
:100100001F92CDB7DEB789837B836A8389818A306A
:1001100031F48A819B81BC018DE00E947D0080ECDE
:1001200090E0FC018081882F90E080729927892BD4
:10013000B1F386EC90E02981FC01208380E090E01F
:100140000F900F900F90DF91CF910895CF93DF9391
:10015000CDB7DEB781E290E0FC01108282E290E050
:100160002FEFFC01208384E290E02FEFFC0120833D
:1001700085E290E0FC01108210920F0110920E01B6
:100180000E94C300FDCFCF93DF931F92CDB7DEB7A0
:1001900080E290E0FC018081882F90E081709927B7
:1001A00021E0892B09F020E0298380910E019091B4
:1001B0000F01CC01A0E0B0E040E050E02AE030E0E8
:1001C000841B950B2817390708F4B6C08A5B9F4F2C
:1001D000FC010C94E10181E090E090930F01809389
:1001E0000E01B1C08981882339F082E090E09093BC
:1001F0000F0180930E01A7C081E090E090930F0162
:1002000080930E01A0C08981882339F082E090E0BC
:1002100090930F0180930E0196C083E090E090933D
:100220000F0180930E018FC08981882339F084E00B
:1002300090E090930F0180930E0185C083E090E0E1
:1002400090930F0180930E017EC08981882339F03D
:1002500084E090E090930F0180930E0174C085E0DC
:1002600090E090930F0180930E016DC089818823E7
:1002700039F086E090E090930F0180930E0163C007
:1002800085E090E090930F0180930E015CC089811E
:10029000882339F086E090E090930F0180930E015F
:1002A00052C087E090E090930F0180930E014BC005
:1002B0008981882339F088E090E090930F01809342
:1002C0000E0141C087E090E090930F0180930E01F2
:1002D0003AC08981882339F088E090E090930F013B
:1002E00080930E0130C089E090E090930F018093DD
:1002F0000E0129C08981882339F08AE090E090932B
:100300000F0180930E011FC089E090E090930F01D0
:1003100080930E0118C08981882339F08AE090E02B
:1003200090930F0180930E010EC081E090E09093B6
:100330000F0180930E0107C081E090E090930F01C0
:1003400080930E01000080910E0190910F01CC016D
:10035000A0E0B0E040E050E02AE030E0841B950BE4
:100360002817390730F18F5A9F4FFC010C94E10197
:1003700085E290E0FC0110821FC085E290E025E15B
:10038000FC01208319C085E290E0FC01108214C0BA
:1003900085E290E02AE2FC0120830EC085E290E035
:1003A000FC01108209C085E290E02FE3FC0120836C
:1003B00003C0000001C0000000000F90DF91CF914A
:1003C0000895EE0FFF1F0024001C0BBE0790F6914E
:0803D000E02D0994F894FFCF21
:0E03D80000000002000000007D000000000098
:00000001FF
