:100000000C944D000C946C000C946C000C946C00DF
:100010000C946C000C946C000C946C000C946C00B0
:100020000C946C000C946C000C946C000C946C00A0
:100030000C946C000C94E0010C946C000C946C001B
:100040000C946C000C946C000C946C000C946C0080
:100050000C946C000C946C000C946C000C946C0070
:100060000C946C000C946C000C946C000C946C0060
:100070000C946C000C946C000C946C000C946C0050
:100080000C946C000C946C000C946C00D202D9029D
:10009000F302160341033003520311241FBECFEFB6
:1000A000D0E4DEBFCDBF11E0A0E0B1E0EEE4F7E0C8
:1000B00000E00BBF02C007900D92AC31B107D9F739
:1000C00021E0ACE1B1E001C01D92A332B207E1F73B
:1000D0000E9470020C94A5030C940000CF93DF9350
:1000E000CDB7DEB781E00E9495000000DF91CF918F
:1000F0000895CF93DF93CDB7DEB784E690E00E94FA
:10010000390188E30E94950086E00E9495008FE007
:100110000E94950081E00E9495008AE090E00E9494
:1001200039010000DF91CF910895CF93DF931F92A3
:10013000CDB7DEB789838BE290E02BE230E0F901A6
:1001400020812F7BFC01208388E290E02981FC0143
:1001500020838BE290E02BE230E0F90120812068DF
:10016000FC01208300008BE290E02BE230E0F901FB
:1001700020812F77FC01208382E090E00E943901EA
:1001800000000F90DF91CF910895CF93DF931F92DE
:10019000CDB7DEB789838BE290E02BE230E0F90146
:1001A00020812064FC01208388E290E02981FC0109
:1001B00020838BE290E02BE230E0F901208120687F
:1001C000FC01208300008BE290E02BE230E0F9019B
:1001D00020812F77FC01208381E090E00E9439018B
:1001E00000000F90DF91CF910895CF93DF9300D05F
:1001F00000D0CDB7DEB78A837C836B830E946E000C
:100200008A81898311C0898191E0980F99830E9426
:1002100022018B819C819C012F5F3F4F3C832B836C
:10022000FC0180810E94C5008B819C81FC01808142
:10023000882349F700000F900F900F900F90DF91E7
:10024000CF910895CF93DF931F92CDB7DEB7898307
:100250008981813128F4898181580E94950004C0E8
:10026000898181550E94950000000F90DF91CF9108
:100270000895CF93DF9300D000D000D0CDB7DEB784
:100280009E838D831A82198213C01C821B8206C032
:1002900000008B819C8101969C838B838B819C8148
:1002A00087309340ACF389819A8101969A83898340
:1002B00029813A818D819E812817390734F3000006
:1002C00026960FB6F894DEBF0FBECDBFDF91CF915B
:1002D0000895CF93DF9300D01F92CDB7DEB7898307
:1002E0007B836A8389818A3031F48A819B81BC0156
:1002F0008DE00E94690180EC90E0FC018081882FF4
:1003000090E080729927892BB1F386EC90E02981E7
:10031000FC01208380E090E00F900F900F90DF9120
:10032000CF910895CF93DF93CDB7DEB781E890E00A
:100330002BE0FC01208388E890E02DE730E0FC0111
:10034000318320838FE690E022E0FC01208384E863
:1003500090E0FC011182108280910E0190910F01BA
:10036000A0911001B091110180931D0190931E0185
:10037000A0931F01B09320018FE590E02FE530E0BE
:10038000F90120812068FC0120830000DF91CF91DA
:100390000895CF93DF93CDB7DEB781E890E0FC01FD
:1003A00010820000DF91CF910895CF93DF93CDB7F6
:1003B000DEB781E080931C010000DF91CF910895AA
:1003C0001F920F9200905F000F92112400905B002B
:1003D0000F922F933F934F935F936F937F938F93DE
:1003E0009F93AF93BF93EF93FF93CF93DF93CDB7DB
:1003F000DEB780911D0190911E01A0911F01B09167
:1004000020010197A109B10980931D0190931E015C
:10041000A0931F01B093200180911D0190911E01B6
:10042000A0911F01B0912001892B8A2B8B2B91F475
:100430000E94D50180910E0190910F01A0911001B1
:10044000B091110180931D0190931E01A0931F0193
:10045000B09320010000DF91CF91FF91EF91BF9108
:10046000AF919F918F917F916F915F914F913F914C
:100470002F910F9000925B000F9000925F000F9001
:100480001F901895CF93DF9300D000D0CDB7DEB783
:1004900069837A838B839C8389819A81AB81BC81B8
:1004A00080930E0190930F01A0931001B09311015E
:1004B00080910E0190910F01A0911001B091110156
:1004C00080931D0190931E01A0931F01B093200102
:1004D00000000F900F900F900F90DF91CF91089533
:1004E000CF93DF93CDB7DEB781E290E0FC011082BD
:1004F00082E290E02FEFFC01208384E290E02FEF76
:10050000FC01208385E290E0FC0110826CE271E046
:1005100080E090E00E9442020E949201109222012B
:10052000109221010E9479000E946E0081E00E94D9
:1005300022010E94A80280911201805D0E94C500E4
:10054000000080911C018823E1F310921C01F1CF7F
:10055000CF93DF931F92CDB7DEB70E946E0080E28B
:1005600090E0FC018081882F90E08170992721E044
:10057000892B09F020E029838091210190912201AB
:10058000CC01A0E0B0E040E050E026E030E0841B89
:10059000950B2817390708F493C08A5B9F4FFC011D
:1005A0000C949C0381E090E09093220180932101C0
:1005B0008CC08981882381F080911201882329F0E1
:1005C0008091120181508093120185E090E0909318
:1005D00022018093210179C082E090E09093220172
:1005E0008093210172C089818823C9F08091120112
:1005F000893049F463E171E081E00E94F50085E013
:100600008093120105C0809112018F5F80931201C7
:1006100085E090E0909322018093210156C083E011
:1006200090E090932201809321014FC0898188231B
:1006300081F080911201882329F08091120181506C
:100640008093120185E090E0909322018093210134
:100650003CC081E090E0909322018093210135C05D
:100660008981882339F085E090E09093220180937E
:1006700021012BC084E090E090932201809321011E
:1006800024C08981882339F086E090E0909322018C
:10069000809321011AC084E090E09093220180931E
:1006A000210113C08981882339F086E090E090937E
:1006B00022018093210104C0109222011092210195
:1006C000109222011092210100008091210190914D
:1006D000220182309105E1F08330910528F40097E2
:1006E00061F0019779F023C085309105E9F08630FB
:1006F0009105E1F0039791F01AC085E290E0FC01CA
:10070000108215C085E290E021E0FC0120830FC03B
:1007100085E290E022E0FC01208309C085E290E0C0
:1007200024E0FC01208303C0000001C000000000A1
:100730000F90DF91CF910895EE0FFF1F0024001C52
:0E0740000BBE0790F691E02D0994F894FFCFC0
:10074E00000000020000000069010000000001002E
:0C075E00000005564943544F5259210039
:00000001FF
