:100000000C9446000C9465000C9465000C946500FB
:100010000C9465000C9465000C9465000C946500CC
:100020000C9465000C9465000C9465000C946500BC
:100030000C9465000C94D9010C9465000C94650037
:100040000C9465000C9465000C9465000C9465009C
:100050000C9465000C9465000C9465000C9465008C
:100060000C9465000C9465000C9465000C9465007C
:100070000C9465000C9465000C9465000C9465006C
:100080000C9465000C9465000C94650011241FBE4F
:10009000CFEFD0E4DEBFCDBF11E0A0E0B1E0E2EFF2
:1000A000F7E000E00BBF02C007900D92A233B1074A
:1000B000D9F721E0A2E3B1E001C01D92AA33B20753
:1000C000E1F70E94BB030C94F7030C940000CF935C
:1000D000DF93CDB7DEB781E00E948E000000DF9194
:1000E000CF910895CF93DF93CDB7DEB784E690E04C
:1000F0000E94320188E30E948E0086E00E948E00FA
:100100008FE00E948E0081E00E948E008AE090E0E5
:100110000E9432010000DF91CF910895CF93DF93C9
:100120001F92CDB7DEB789838BE290E02BE230E0FF
:10013000F90120812F7BFC01208388E290E0298156
:10014000FC0120838BE290E02BE230E0F90120817A
:100150002068FC01208300008BE290E02BE230E07D
:10016000F90120812F77FC01208382E090E00E943A
:10017000320100000F90DF91CF910895CF93DF936C
:100180001F92CDB7DEB789838BE290E02BE230E09F
:10019000F90120812064FC01208388E290E029811C
:1001A000FC0120838BE290E02BE230E0F90120811A
:1001B0002068FC01208300008BE290E02BE230E01D
:1001C000F90120812F77FC01208381E090E00E94DB
:1001D000320100000F90DF91CF910895CF93DF930C
:1001E00000D000D0CDB7DEB78A837C836B830E94BA
:1001F00067008A81898311C0898191E0980F998372
:100200000E941B018B819C819C012F5F3F4F3C838F
:100210002B83FC0180810E94BE008B819C81FC01AC
:100220008081882349F700000F900F900F900F9066
:10023000DF91CF910895CF93DF931F92CDB7DEB7B3
:1002400089838981813128F4898181580E948E00B7
:1002500004C0898181550E948E0000000F90DF91BB
:10026000CF910895CF93DF9300D000D000D0CDB7C9
:10027000DEB79E838D831A82198213C01C821B8273
:1002800006C000008B819C8101969C838B838B81AF
:100290009C8187309340ACF389819A8101969A833F
:1002A000898329813A818D819E812817390734F30A
:1002B000000026960FB6F894DEBF0FBECDBFDF91CB
:1002C000CF910895CF93DF9300D01F92CDB7DEB7C3
:1002D00089837B836A8389818A3031F48A819B8117
:1002E000BC018DE00E94620180EC90E0FC01808105
:1002F000882F90E080729927892BB1F386EC90E0EB
:100300002981FC01208380E090E00F900F900F90F6
:10031000DF91CF910895CF93DF93CDB7DEB781E022
:10032000809333010000DF91CF910895CF93DF9345
:10033000CDB7DEB781E890E02BE0FC01208388E8B0
:1003400090E02DE730E0FC01318320838FE690E0E0
:1003500022E0FC01208384E890E0FC0111821082FD
:1003600080910F0190911001A0911101B0911201A3
:100370008093340190933501A0933601B0933701F7
:100380008FE590E02FE530E0F90120812068FC0145
:1003900020830000DF91CF910895CF93DF93CDB7F5
:1003A000DEB781E890E0FC0110820000DF91CF9180
:1003B00008951F920F9200905F000F9211240090F9
:1003C0005B000F922F933F934F935F936F937F93B5
:1003D0008F939F93AF93BF93EF93FF93CF93DF934D
:1003E000CDB7DEB78091340190913501A0913601EF
:1003F000B09137010197A109B1098093340190931D
:100400003501A0933601B09337018091340190916A
:100410003501A0913601B0913701892B8A2B8B2BA6
:1004200091F40E948B0180910F0190911001A09195
:100430001101B09112018093340190933501A09382
:100440003601B09337010000DF91CF91FF91EF911A
:10045000BF91AF919F918F917F916F915F914F91DC
:100460003F912F910F9000925B000F9000925F00E0
:100470000F901F901895CF93DF9300D000D0CDB789
:10048000DEB769837A838B839C8389819A81AB8170
:10049000BC8180930F0190931001A0931101B09340
:1004A000120180910F0190911001A0911101B09162
:1004B00012018093340190933501A0933601B093DB
:1004C000370100000F900F900F900F90DF91CF91A8
:1004D0000895CF93DF93CDB7DEB780910E018823C7
:1004E00031F463E171E081E00E94EE005EC0809132
:1004F0000E01813031F465E171E081E00E94EE008F
:1005000054C080910E01823031F467E171E081E0E6
:100510000E94EE004AC080910E01833031F469E1FF
:1005200071E081E00E94EE0040C080910E018430B5
:1005300031F46BE171E081E00E94EE0036C0809101
:100540000E01853031F46DE171E081E00E94EE0032
:100550002CC080910E01863031F46FE171E081E0B2
:100560000E94EE0022C080910E01873031F461E2DA
:1005700071E081E00E94EE0018C080910E01883089
:1005800031F463E271E081E00E94EE000EC08091E0
:100590000E01893051F465E271E081E00E94EE00C5
:1005A00067E271E082E00E94EE0080913801909154
:1005B000390182309105E9F08330910528F40097E4
:1005C00051F0019779F05DC08330910551F10497A6
:1005D00009F43FC056C081E090E0909339018093C8
:1005E000380154C082E090E0909339018093380143
:1005F0004DC080E290E0FC018081882F90E0817006
:100600009927892B39F483E090E090933901809306
:1006100038013CC082E090E090933901809338012A
:1006200035C080E290E0FC018081882F90E08170ED
:100630009927892B39F483E090E0909339018093D6
:10064000380124C084E090E0909339018093380110
:100650001DC080E290E0FC018081882F90E08170D5
:100660009927892B39F481E090E0909339018093A8
:1006700038010CC084E090E09093390180933801F8
:1006800005C01092390110923801000080913801A4
:100690009091390182309105D1F08330910528F491
:1006A000009759F0019769F062C08330910509F411
:1006B0004BC0049709F45AC05AC085E080930E01DC
:1006C00056C085E290E021E0FC01208350C080917B
:1006D00032018823E9F485E290E0FC0180818430D6
:1006E00069F485E290E025E230E0F9012081269569
:1006F000FC01208381E08093320139C085E290E0E3
:1007000025E230E0F9012081220FFC0120832FC077
:1007100085E290E0FC018081813061F485E290E027
:1007200025E230E0F9012081220FFC0120831092A4
:1007300032011DC085E290E025E230E0F901208120
:100740002695FC01208313C085E290E0FC018081A6
:10075000823031F480910E018F5F80930E0107C0CB
:1007600080910E01815080930E0101C000000000B5
:10077000DF91CF910895CF93DF93CDB7DEB781E2BC
:1007800090E0FC01108282E290E02FEFFC012083D8
:1007900084E290E02FEFFC01208385E290E0FC01F1
:1007A000108287E290E02FEFFC01208388E290E046
:1007B000FC0110828AE290E02FEFFC0120838BE2A3
:1007C00090E0FC0110826CE271E080E090E00E9419
:1007D0003B020E9496010E9472000E946902000082
:1007E000809133018823E1F310923301F6CFF8941E
:0207F000FFCF39
:1007F200000000020000000062010000000005018C
:100802000000003000310032003300340035003681
:1008120000370038003900564943544F52592121BC
:020822002100B3
:00000001FF
