:100000000C9446000C9465000C9465000C946500FB
:100010000C9465000C9465000C9465000C946500CC
:100020000C9465000C9465000C9465000C946500BC
:100030000C9465000C94A5010C9465000C9465006B
:100040000C9465000C9465000C9465000C9465009C
:100050000C9465000C9465000C9465000C9465008C
:100060000C9465000C9465000C9465000C9465007C
:100070000C9465000C9465000C9465000C9465006C
:100080000C9465000C9465000C94650011241FBE4F
:10009000CFEFD0E4DEBFCDBF11E0A0E0B1E0EEE5F0
:1000A000F9E000E00BBF02C007900D92AE37B10738
:1000B000D9F721E0AEE7B1E001C01D92AB38B2073D
:1000C000E1F70E94EB020C94AD040C940000CF9376
:1000D000DF9300D01F92CDB7DEB789837B836A831D
:1000E00089818A3031F48A819B81BC018DE00E9434
:1000F000670080EC90E0FC018081882F90E08072A6
:100100009927892BB1F386EC90E02981FC012083AB
:1001100080E090E00F900F900F90DF91CF910895C5
:100120000F931F93CF93DF9300D000D0CDB7DEB7EE
:1001300069837A838B839C8380918501909186016A
:10014000A0918701B09188019C01AD0169817A81FC
:100150008B819C810E941903882309F477C020E0D9
:1001600030E0A90169817A818B819C810E94190309
:10017000882351F481E990E021E930E0F901208100
:100180002870FC01208309C081E990E021E930E07A
:10019000F90120812360FC01208328E539E344E74D
:1001A0005FE369817A818B819C810E941903882396
:1001B00044F488E990E02FEF3FEFFC013183208386
:1001C00034C020E034E244EF56E469817A818B81C7
:1001D0009C810E943B04181634F488E990E0FC01ED
:1001E0001182108222C008E910E020E030E040E0F7
:1001F00053E469817A818B819C810E944004DC01F7
:10020000CB019C01AD0160E074E284EF9AE40E94AE
:100210001E03DC01CB01BC01CD010E949003DC0177
:10022000CB010197F8019183808384E990E0FC0180
:100230001182108289819A81AB81BC818093850172
:1002400090938601A0938701B093880100000F90DE
:100250000F900F900F90DF91CF911F910F91089504
:10026000CF93DF93CDB7DEB780E990E020E4FC01C7
:10027000208381E990E02BE0FC01208360E070E0C6
:10028000CB010E9490000000DF91CF910895CF93A1
:10029000DF93CDB7DEB780E990E0FC01108281E901
:1002A00090E0FC0110820000DF91CF910895CF9380
:1002B000DF93CDB7DEB781E080937E010000DF9150
:1002C000CF910895CF93DF93CDB7DEB781E890E06B
:1002D000FC0110820000DF91CF910895CF93DF934E
:1002E000CDB7DEB781E890E02BE0FC01208388E801
:1002F00090E02DE730E0FC01318320838FE690E031
:1003000022E0FC01208384E890E0FC01118210824D
:1003100080910E0190910F01A0911001B0911101F7
:1003200080937F0190938001A0938101B09382011B
:100330008FE590E02FE530E0F90120812068FC0195
:1003400020830000DF91CF9108951F920F920090BB
:100350005F000F92112400905B000F922F933F9348
:100360004F935F936F937F938F939F93AF93BF93BD
:10037000EF93FF93CF93DF93CDB7DEB780917F01EB
:1003800090918001A0918101B09182010197A10912
:10039000B10980937F0190938001A0938101B09374
:1003A000820180917F0190918001A0918101B091A3
:1003B0008201892B8A2B8B2B91F40E94570180910B
:1003C0000E0190910F01A0911001B0911101809345
:1003D0007F0190938001A0938101B093820100007E
:1003E000DF91CF91FF91EF91BF91AF919F918F914D
:1003F0007F916F915F914F913F912F910F9000925C
:100400005B000F9000925F000F901F901895CF93A4
:10041000DF9300D000D0CDB7DEB769837A838B83BA
:100420009C8389819A81AB81BC8180930E019093DA
:100430000F01A0931001B093110180910E019091D2
:100440000F01A0911001B091110180937F01909351
:100450008001A0938101B093820100000F900F9062
:100460000F900F90DF91CF910895CF93DF931F925C
:10047000CDB7DEB780E290E0FC018081882F90E06C
:100480008170992721E0892B09F020E02983809150
:10049000890190918A018230910509F441C083302D
:1004A000910528F4009749F0019771F04AC0833014
:1004B0009105D9F0049769F144C081E090E09093F0
:1004C0008A01809389013DC08981813039F483E0BC
:1004D00090E090938A018093890133C081E090E09D
:1004E00090938A01809389012CC08091830190911F
:1004F00084014B973CF483E090E090938A018093D1
:1005000089011FC084E090E090938A018093890163
:1005100018C082E090E090938A018093890111C015
:100520008981813039F484E090E090938A0180934E
:10053000890106C081E090E090938A01809389014F
:1005400000008091890190918A0182309105D9F152
:100550008330910528F4009749F00197B1F136C036
:100560008330910549F0049721F130C060E070E0DC
:10057000CB010E9490002AC0809183019091840158
:10058000880F991F880F991F8E5E9E4FFC018081F6
:100590009181A281B381BC01CD010E949000809124
:1005A000830190918401019690938401809383014B
:1005B0000DC060E070E0CB010E94900010928401B9
:1005C0001092830103C0000001C0000000000F90E2
:1005D000DF91CF910895CF93DF93CDB7DEB781E25E
:1005E00090E0FC01108282E290E02FEFFC0120837A
:1005F00084E290E020E4FC01208385E290E0FC01AD
:10060000108268EC70E080E090E00E9407020E9497
:100610006E010E94300110928A01109289010E949D
:100620003502000080917E018823E1F310927E0163
:10063000F6CF0E94C60308F481E008950E943203B9
:100640000C9401040E94FA0358F00E94F30340F056
:1006500029F45F3F29F00C94EA0351110C943504FE
:100660000C94F0030E94120468F39923B1F355230C
:1006700091F3951B550BBB27AA27621773078407B5
:1006800038F09F5F5F4F220F331F441FAA1FA9F34B
:1006900035D00E2E3AF0E0E832D091505040E69539
:1006A000001CCAF72BD0FE2F29D0660F771F881F9A
:1006B000BB1F261737074807AB07B0E809F0BB0B8D
:1006C000802DBF01FF2793585F4F3AF09E3F5105A1
:1006D00078F00C94EA030C9435045F3FE4F3983E01
:1006E000D4F3869577956795B795F7959F5FC9F78A
:1006F000880F911D9695879597F90895E1E0660F0B
:10070000771F881FBB1F621773078407BA0720F083
:10071000621B730B840BBA0BEE1F88F7E0950895EC
:100720000E9497036894B1110C94350408950E94B7
:100730001A0488F09F5798F0B92F9927B751B0F055
:10074000E1F0660F771F881F991F1AF0BA95C9F755
:1007500014C0B13091F00E943404B1E008950C94BB
:100760003404672F782F8827B85F39F0B93FCCF36E
:10077000869577956795B395D9F73EF490958095D2
:10078000709561957F4F8F4F9F4F0895990F000887
:10079000550FAA0BE0E8FEEF16161706E807F90753
:1007A000C0F012161306E407F50798F0621B730BEE
:1007B000840B950B39F40A2661F0232B242B252B6F
:1007C00021F408950A2609F4A140A6958FEF811D12
:1007D000811D089597F99F6780E870E060E00895B3
:1007E0009FEF80EC089500240A9416161706180649
:1007F0000906089500240A94121613061406050625
:100800000895092E0394000C11F4882352F0BB0FB5
:1008100040F4BF2B11F460FF04C06F5F7F4F8F4F18
:100820009F4F089557FD9058440F551F59F05F3F53
:1008300071F04795880F97FB991F61F09F3F79F002
:1008400087950895121613061406551FF2CF469584
:10085000F1DF08C0161617061806991FF1CF869506
:100860007105610508940895E894BB2766277727EA
:10087000CB0197F908950E94C60308F48FEF0895FD
:100880000E9453040C9401040E94F30338F00E9468
:10089000FA0320F0952311F00C94EA030C94F00372
:1008A00011240C9435040E94120470F3959FC1F337
:1008B000950F50E0551F629FF001729FBB27F00D0E
:1008C000B11D639FAA27F00DB11DAA1F649F662763
:1008D000B00DA11D661F829F2227B00DA11D621FB2
:1008E000739FB00DA11D621F839FA00D611D221F6C
:1008F000749F3327A00D611D231F849F600D211D50
:10090000822F762F6A2F11249F5750409AF0F1F0D2
:1009100088234AF0EE0FFF1FBB1F661F771F881F3B
:1009200091505040A9F79E3F510580F00C94EA0386
:100930000C9435045F3FE4F3983ED4F386957795A5
:100940006795B795F795E7959F5FC1F7FE2B880FE1
:0E095000911D9695879597F90895F894FFCF1D
:10095E00000000020000000067000000000001001F
:10096E000000A4D0A443A4D0A443719DAE43719DB6
:10097E00AE430000C4430000C443A4F0F64300009D
:10098E00DC430000C4430000C4430000000000002C
:10099E00DC430000C443719DAE43719DAE43000025
:1009AE000000719DAE4300000000719DAE4300003B
:1009BE000000719DAE4300000000719DAE4300002B
:0E09CE00C443719DAE43A4D0A443A4D0A4435F
:00000001FF
