:100000000C9446000C9465000C9465000C946500FB
:100010000C9465000C9465000C9465000C946500CC
:100020000C9465000C9465000C9465000C946500BC
:100030000C9465000C94DE000C9465000C94650033
:100040000C9465000C9465000C9465000C9465009C
:100050000C9465000C9465000C9465000C9465008C
:100060000C9465000C9465000C9465000C9465007C
:100070000C9465000C9465000C9465000C9465006C
:100080000C9465000C9465000C94650011241FBE4F
:10009000CFEFD0E4DEBFCDBF11E0A0E0B1E0E8EAF1
:1000A000F5E000E00BBF02C007900D92A231B1074E
:1000B000D9F721E0A2E1B1E001C01D92A332B2075D
:1000C000E1F70E941E020C94D2020C940000CF9320
:1000D000DF9300D01F92CDB7DEB789837B836A831D
:1000E00089818A3031F48A819B81BC018DE00E9434
:1000F000670080EC90E0FC018081882F90E08072A6
:100100009927892BB1F386EC90E02981FC012083AB
:1001100080E090E00F900F900F90DF91CF910895C5
:10012000CF93DF93CDB7DEB781E08093120100005B
:10013000DF91CF910895CF93DF93CDB7DEB781E8FC
:1001400090E0FC0110820000DF91CF910895CF93E1
:10015000DF93CDB7DEB781E890E02BE0FC01208390
:1001600088E890E02DE730E0FC01318320838FE6C2
:1001700090E022E0FC01208384E890E0FC01118201
:10018000108280910E0190910F01A0911001B09109
:1001900011018093130190931401A0931501B09362
:1001A00016018FE590E02FE530E0F901208120680D
:1001B000FC0120830000DF91CF9108951F920F92E0
:1001C00000905F000F92112400905B000F922F931C
:1001D0003F934F935F936F937F938F939F93AF93CF
:1001E000BF93EF93FF93CF93DF93CDB7DEB78091AB
:1001F000130190911401A0911501B091160101977E
:10020000A109B1098093130190931401A0931501E2
:10021000B09316018091130190911401A0911501E2
:10022000B0911601892B8A2B8B2B91F40E949000A0
:1002300080910E0190910F01A0911001B0911101D8
:100240008093130190931401A0931501B0931601AC
:100250000000DF91CF91FF91EF91BF91AF919F91FE
:100260008F917F916F915F914F913F912F910F905F
:1002700000925B000F9000925F000F901F90189506
:10028000CF93DF9300D000D0CDB7DEB769837A83F8
:100290008B839C8389819A81AB81BC8180930E0181
:1002A00090930F01A0931001B093110180910E0162
:1002B00090910F01A0911001B09111018093130151
:1002C00090931401A0931501B093160100000F90B4
:1002D0000F900F900F90DF91CF910895CF93DF9300
:1002E000CDB7DEB780912101909122018230910536
:1002F00061F08330910581F00197A9F482E090E0EC
:10030000909322018093210115C083E090E09093A7
:100310002201809321010EC081E090E090932201A0
:100320008093210107C081E090E0909322018093A7
:1003300021010000809121019091220182309105DC
:1003400081F08330910518F4019739F017C083309C
:10035000910559F0049769F011C081E0809317016D
:100360000DC082E08093170109C084E080931701DB
:1003700005C0109219011092180100000000DF91D1
:10038000CF910895CF93DF93CDB7DEB780911D0154
:1003900090911E018130910519F0039741F00EC034
:1003A00083E090E090931E0180931D010EC081E0D8
:1003B00090E090931E0180931D0107C081E090E0C2
:1003C00090931E0180931D01000080911D0190916A
:1003D0001E018130910519F0039729F007C088E0CC
:1003E00080931C0103C010921C0100000000DF91EB
:1003F000CF910895CF93DF93CDB7DEB780911F01E2
:1004000090912001019779F485E290E030911701F5
:1004100020911C01232BFC01208381E090E090932C
:10042000200180931F0181E090E090932001809350
:100430001F0100000000DF91CF910895CF93DF935B
:10044000CDB7DEB760970FB6F894DEBF0FBECDBF55
:1004500084E290E02FEFFC01208385E290E0FC0134
:10046000108288EE93E0A0E0B0E089839A83AB83AA
:10047000BC8388EE93E0A0E0B0E08D839E83AF83E1
:10048000B88788EC90E0A0E0B0E089879A87AB87D6
:10049000BC8788EC90E0A0E0B0E08D879E87AF87B6
:1004A000B88B8D859E85AF85B889BC01CD010E9432
:1004B00040010E94A70081E090E090932201809388
:1004C000210181E090E090931E0180931D0181E065
:1004D00090E09093200180931F0189819A81AB81E4
:1004E000BC81883E9340A105B10530F00E946E01A9
:1004F00019821A821B821C828D819E81AF81B885F0
:10050000883E9340A105B10530F00E94C2011D82D2
:100510001E821F82188689859A85AB85BC85883C9A
:100520009105A105B10530F00E94FA0119861A86DD
:100530001B861C860000809112018823E1F3109233
:10054000120129813A814B815C818D859E85AF8521
:10055000B889820F931FA41FB51F89839A83AB8329
:10056000BC832D813E814F8158858D859E85AF85C9
:10057000B889820F931FA41FB51F8D839E83AF83FD
:10058000B88729853A854B855C858D859E85AF85A5
:10059000B889820F931FA41FB51F89879A87AB87DD
:0805A000BC879BCFF894FFCF4C
:1005A80000000002000000006700000000000100D9
:0205B800000041
:00000001FF
